{
  "contracts/SimpleStorage.sol": {
    "SimpleStorage": {
      "abi": [
        {
          "inputs": [
            {
              "internalType": "string",
              "name": "_name",
              "type": "string"
            },
            {
              "internalType": "uint256",
              "name": "_favoriteNumber",
              "type": "uint256"
            }
          ],
          "name": "addPerson",
          "outputs": [],
          "stateMutability": "nonpayable",
          "type": "function"
        },
        {
          "inputs": [
            {
              "internalType": "string",
              "name": "",
              "type": "string"
            }
          ],
          "name": "nameToFavoriteNumber",
          "outputs": [
            {
              "internalType": "uint256",
              "name": "",
              "type": "uint256"
            }
          ],
          "stateMutability": "view",
          "type": "function"
        },
        {
          "inputs": [
            {
              "internalType": "uint256",
              "name": "",
              "type": "uint256"
            }
          ],
          "name": "people",
          "outputs": [
            {
              "internalType": "uint256",
              "name": "favoriteNumber",
              "type": "uint256"
            },
            {
              "internalType": "string",
              "name": "name",
              "type": "string"
            }
          ],
          "stateMutability": "view",
          "type": "function"
        },
        {
          "inputs": [],
          "name": "retrieve",
          "outputs": [
            {
              "internalType": "uint256",
              "name": "",
              "type": "uint256"
            }
          ],
          "stateMutability": "view",
          "type": "function"
        },
        {
          "inputs": [
            {
              "internalType": "uint256",
              "name": "_favoriteNumber",
              "type": "uint256"
            }
          ],
          "name": "store",
          "outputs": [],
          "stateMutability": "nonpayable",
          "type": "function"
        }
      ],
      "evm": {
        "bytecode": {
          "linkReferences": {},
          "object": "608060405234801561001057600080fd5b50610959806100206000396000f3fe608060405234801561001057600080fd5b50600436106100575760003560e01c80632e64cec11461005c5780636057361d1461007a5780636f760f41146100965780638bab8dd5146100b25780639e7a13ad146100e2575b600080fd5b610064610113565b6040516100719190610712565b60405180910390f35b610094600480360381019061008f9190610655565b6101a1565b005b6100b060048036038101906100ab91906105f9565b61022f565b005b6100cc60048036038101906100c791906105b0565b61039b565b6040516100d99190610712565b60405180910390f35b6100fc60048036038101906100f79190610655565b6103c9565b60405161010a92919061072d565b60405180910390f35b60006101417ff4ef8d6e15f1ac15f39534150d3ca0e50752fa1de67172a7295b18f6780271f460001b610485565b61016d7fd677eb6629c45e9f5f199ca8c18b59f1da56e391a56f6c00d669ee21e8035db160001b610485565b6101997fb02575477c5bb5362186f4564ffaa37ffc55d8ce8caa24639aeee7006f32db3360001b610485565b600054905090565b6101cd7fa5db4d702df8abf5c42304ea35b2e4698eacbbaa860427b0c7122d74f00df75260001b610485565b6101f97f2b17fbce9e01a7d6189c1f0c1caa5bdd126104b2e098e360631414ed8cdab71260001b610485565b6102257fd50375b93601ec2bab93c1b3ed5f2ff8e884f454b29aa6862673688c4360ead160001b610485565b8060008190555050565b61025b7f4a36f68571fc6902f6b75e975fdca73d2486c3833bcf2ed1f4faa5393ccf323e60001b610485565b6102877ff0a8fffeeff6e311e3cf10d45f10c5198831ab1efac9f5cd530100ad2f598ee960001b610485565b6102b37feeabb764bab87e8ca7dc79012996fc173d78364420ed90e73bb7c66ad544e20560001b610485565b60016040518060400160405280838152602001848152509080600181540180825580915050600190039060005260206000209060020201600090919091909150600082015181600001556020820151816001019080519060200190610319929190610488565b5050506103487f887e4e0ed0e669733ce1bc50e01721c403db46eb16c33c3ea8351026471f298e60001b610485565b6103747f9da706ef032060dad91bbb03d54e6948d79143f926d13be2ccd6474fc25e1e0660001b610485565b8060028360405161038591906106fb565b9081526020016040518091039020819055505050565b6002818051602081018201805184825260208301602085012081835280955050505050506000915090505481565b600181815481106103d957600080fd5b906000526020600020906002020160009150905080600001549080600101805461040290610826565b80601f016020809104026020016040519081016040528092919081815260200182805461042e90610826565b801561047b5780601f106104505761010080835404028352916020019161047b565b820191906000526020600020905b81548152906001019060200180831161045e57829003601f168201915b5050505050905082565b50565b82805461049490610826565b90600052602060002090601f0160209004810192826104b657600085556104fd565b82601f106104cf57805160ff19168380011785556104fd565b828001600101855582156104fd579182015b828111156104fc5782518255916020019190600101906104e1565b5b50905061050a919061050e565b5090565b5b8082111561052757600081600090555060010161050f565b5090565b600061053e61053984610782565b61075d565b90508281526020810184848401111561055a576105596108ec565b5b6105658482856107e4565b509392505050565b600082601f830112610582576105816108e7565b5b813561059284826020860161052b565b91505092915050565b6000813590506105aa8161090c565b92915050565b6000602082840312156105c6576105c56108f6565b5b600082013567ffffffffffffffff8111156105e4576105e36108f1565b5b6105f08482850161056d565b91505092915050565b600080604083850312156106105761060f6108f6565b5b600083013567ffffffffffffffff81111561062e5761062d6108f1565b5b61063a8582860161056d565b925050602061064b8582860161059b565b9150509250929050565b60006020828403121561066b5761066a6108f6565b5b60006106798482850161059b565b91505092915050565b600061068d826107b3565b61069781856107be565b93506106a78185602086016107f3565b6106b0816108fb565b840191505092915050565b60006106c6826107b3565b6106d081856107cf565b93506106e08185602086016107f3565b80840191505092915050565b6106f5816107da565b82525050565b600061070782846106bb565b915081905092915050565b600060208201905061072760008301846106ec565b92915050565b600060408201905061074260008301856106ec565b81810360208301526107548184610682565b90509392505050565b6000610767610778565b90506107738282610858565b919050565b6000604051905090565b600067ffffffffffffffff82111561079d5761079c6108b8565b5b6107a6826108fb565b9050602081019050919050565b600081519050919050565b600082825260208201905092915050565b600081905092915050565b6000819050919050565b82818337600083830152505050565b60005b838110156108115780820151818401526020810190506107f6565b83811115610820576000848401525b50505050565b6000600282049050600182168061083e57607f821691505b6020821081141561085257610851610889565b5b50919050565b610861826108fb565b810181811067ffffffffffffffff821117156108805761087f6108b8565b5b80604052505050565b7f4e487b7100000000000000000000000000000000000000000000000000000000600052602260045260246000fd5b7f4e487b7100000000000000000000000000000000000000000000000000000000600052604160045260246000fd5b600080fd5b600080fd5b600080fd5b600080fd5b6000601f19601f8301169050919050565b610915816107da565b811461092057600080fd5b5056fea2646970667358221220e82dd460f02ae26d712e69655d445270ee4edf2008481225ac311eea81f7c42f64736f6c63430008070033",
          "opcodes": "PUSH1 0x80 PUSH1 0x40 MSTORE CALLVALUE DUP1 ISZERO PUSH2 0x10 JUMPI PUSH1 0x0 DUP1 REVERT JUMPDEST POP PUSH2 0x959 DUP1 PUSH2 0x20 PUSH1 0x0 CODECOPY PUSH1 0x0 RETURN INVALID PUSH1 0x80 PUSH1 0x40 MSTORE CALLVALUE DUP1 ISZERO PUSH2 0x10 JUMPI PUSH1 0x0 DUP1 REVERT JUMPDEST POP PUSH1 0x4 CALLDATASIZE LT PUSH2 0x57 JUMPI PUSH1 0x0 CALLDATALOAD PUSH1 0xE0 SHR DUP1 PUSH4 0x2E64CEC1 EQ PUSH2 0x5C JUMPI DUP1 PUSH4 0x6057361D EQ PUSH2 0x7A JUMPI DUP1 PUSH4 0x6F760F41 EQ PUSH2 0x96 JUMPI DUP1 PUSH4 0x8BAB8DD5 EQ PUSH2 0xB2 JUMPI DUP1 PUSH4 0x9E7A13AD EQ PUSH2 0xE2 JUMPI JUMPDEST PUSH1 0x0 DUP1 REVERT JUMPDEST PUSH2 0x64 PUSH2 0x113 JUMP JUMPDEST PUSH1 0x40 MLOAD PUSH2 0x71 SWAP2 SWAP1 PUSH2 0x712 JUMP JUMPDEST PUSH1 0x40 MLOAD DUP1 SWAP2 SUB SWAP1 RETURN JUMPDEST PUSH2 0x94 PUSH1 0x4 DUP1 CALLDATASIZE SUB DUP2 ADD SWAP1 PUSH2 0x8F SWAP2 SWAP1 PUSH2 0x655 JUMP JUMPDEST PUSH2 0x1A1 JUMP JUMPDEST STOP JUMPDEST PUSH2 0xB0 PUSH1 0x4 DUP1 CALLDATASIZE SUB DUP2 ADD SWAP1 PUSH2 0xAB SWAP2 SWAP1 PUSH2 0x5F9 JUMP JUMPDEST PUSH2 0x22F JUMP JUMPDEST STOP JUMPDEST PUSH2 0xCC PUSH1 0x4 DUP1 CALLDATASIZE SUB DUP2 ADD SWAP1 PUSH2 0xC7 SWAP2 SWAP1 PUSH2 0x5B0 JUMP JUMPDEST PUSH2 0x39B JUMP JUMPDEST PUSH1 0x40 MLOAD PUSH2 0xD9 SWAP2 SWAP1 PUSH2 0x712 JUMP JUMPDEST PUSH1 0x40 MLOAD DUP1 SWAP2 SUB SWAP1 RETURN JUMPDEST PUSH2 0xFC PUSH1 0x4 DUP1 CALLDATASIZE SUB DUP2 ADD SWAP1 PUSH2 0xF7 SWAP2 SWAP1 PUSH2 0x655 JUMP JUMPDEST PUSH2 0x3C9 JUMP JUMPDEST PUSH1 0x40 MLOAD PUSH2 0x10A SWAP3 SWAP2 SWAP1 PUSH2 0x72D JUMP JUMPDEST PUSH1 0x40 MLOAD DUP1 SWAP2 SUB SWAP1 RETURN JUMPDEST PUSH1 0x0 PUSH2 0x141 PUSH32 0xF4EF8D6E15F1AC15F39534150D3CA0E50752FA1DE67172A7295B18F6780271F4 PUSH1 0x0 SHL PUSH2 0x485 JUMP JUMPDEST PUSH2 0x16D PUSH32 0xD677EB6629C45E9F5F199CA8C18B59F1DA56E391A56F6C00D669EE21E8035DB1 PUSH1 0x0 SHL PUSH2 0x485 JUMP JUMPDEST PUSH2 0x199 PUSH32 0xB02575477C5BB5362186F4564FFAA37FFC55D8CE8CAA24639AEEE7006F32DB33 PUSH1 0x0 SHL PUSH2 0x485 JUMP JUMPDEST PUSH1 0x0 SLOAD SWAP1 POP SWAP1 JUMP JUMPDEST PUSH2 0x1CD PUSH32 0xA5DB4D702DF8ABF5C42304EA35B2E4698EACBBAA860427B0C7122D74F00DF752 PUSH1 0x0 SHL PUSH2 0x485 JUMP JUMPDEST PUSH2 0x1F9 PUSH32 0x2B17FBCE9E01A7D6189C1F0C1CAA5BDD126104B2E098E360631414ED8CDAB712 PUSH1 0x0 SHL PUSH2 0x485 JUMP JUMPDEST PUSH2 0x225 PUSH32 0xD50375B93601EC2BAB93C1B3ED5F2FF8E884F454B29AA6862673688C4360EAD1 PUSH1 0x0 SHL PUSH2 0x485 JUMP JUMPDEST DUP1 PUSH1 0x0 DUP2 SWAP1 SSTORE POP POP JUMP JUMPDEST PUSH2 0x25B PUSH32 0x4A36F68571FC6902F6B75E975FDCA73D2486C3833BCF2ED1F4FAA5393CCF323E PUSH1 0x0 SHL PUSH2 0x485 JUMP JUMPDEST PUSH2 0x287 PUSH32 0xF0A8FFFEEFF6E311E3CF10D45F10C5198831AB1EFAC9F5CD530100AD2F598EE9 PUSH1 0x0 SHL PUSH2 0x485 JUMP JUMPDEST PUSH2 0x2B3 PUSH32 0xEEABB764BAB87E8CA7DC79012996FC173D78364420ED90E73BB7C66AD544E205 PUSH1 0x0 SHL PUSH2 0x485 JUMP JUMPDEST PUSH1 0x1 PUSH1 0x40 MLOAD DUP1 PUSH1 0x40 ADD PUSH1 0x40 MSTORE DUP1 DUP4 DUP2 MSTORE PUSH1 0x20 ADD DUP5 DUP2 MSTORE POP SWAP1 DUP1 PUSH1 0x1 DUP2 SLOAD ADD DUP1 DUP3 SSTORE DUP1 SWAP2 POP POP PUSH1 0x1 SWAP1 SUB SWAP1 PUSH1 0x0 MSTORE PUSH1 0x20 PUSH1 0x0 KECCAK256 SWAP1 PUSH1 0x2 MUL ADD PUSH1 0x0 SWAP1 SWAP2 SWAP1 SWAP2 SWAP1 SWAP2 POP PUSH1 0x0 DUP3 ADD MLOAD DUP2 PUSH1 0x0 ADD SSTORE PUSH1 0x20 DUP3 ADD MLOAD DUP2 PUSH1 0x1 ADD SWAP1 DUP1 MLOAD SWAP1 PUSH1 0x20 ADD SWAP1 PUSH2 0x319 SWAP3 SWAP2 SWAP1 PUSH2 0x488 JUMP JUMPDEST POP POP POP PUSH2 0x348 PUSH32 0x887E4E0ED0E669733CE1BC50E01721C403DB46EB16C33C3EA8351026471F298E PUSH1 0x0 SHL PUSH2 0x485 JUMP JUMPDEST PUSH2 0x374 PUSH32 0x9DA706EF032060DAD91BBB03D54E6948D79143F926D13BE2CCD6474FC25E1E06 PUSH1 0x0 SHL PUSH2 0x485 JUMP JUMPDEST DUP1 PUSH1 0x2 DUP4 PUSH1 0x40 MLOAD PUSH2 0x385 SWAP2 SWAP1 PUSH2 0x6FB JUMP JUMPDEST SWAP1 DUP2 MSTORE PUSH1 0x20 ADD PUSH1 0x40 MLOAD DUP1 SWAP2 SUB SWAP1 KECCAK256 DUP2 SWAP1 SSTORE POP POP POP JUMP JUMPDEST PUSH1 0x2 DUP2 DUP1 MLOAD PUSH1 0x20 DUP2 ADD DUP3 ADD DUP1 MLOAD DUP5 DUP3 MSTORE PUSH1 0x20 DUP4 ADD PUSH1 0x20 DUP6 ADD KECCAK256 DUP2 DUP4 MSTORE DUP1 SWAP6 POP POP POP POP POP POP PUSH1 0x0 SWAP2 POP SWAP1 POP SLOAD DUP2 JUMP JUMPDEST PUSH1 0x1 DUP2 DUP2 SLOAD DUP2 LT PUSH2 0x3D9 JUMPI PUSH1 0x0 DUP1 REVERT JUMPDEST SWAP1 PUSH1 0x0 MSTORE PUSH1 0x20 PUSH1 0x0 KECCAK256 SWAP1 PUSH1 0x2 MUL ADD PUSH1 0x0 SWAP2 POP SWAP1 POP DUP1 PUSH1 0x0 ADD SLOAD SWAP1 DUP1 PUSH1 0x1 ADD DUP1 SLOAD PUSH2 0x402 SWAP1 PUSH2 0x826 JUMP JUMPDEST DUP1 PUSH1 0x1F ADD PUSH1 0x20 DUP1 SWAP2 DIV MUL PUSH1 0x20 ADD PUSH1 0x40 MLOAD SWAP1 DUP2 ADD PUSH1 0x40 MSTORE DUP1 SWAP3 SWAP2 SWAP1 DUP2 DUP2 MSTORE PUSH1 0x20 ADD DUP3 DUP1 SLOAD PUSH2 0x42E SWAP1 PUSH2 0x826 JUMP JUMPDEST DUP1 ISZERO PUSH2 0x47B JUMPI DUP1 PUSH1 0x1F LT PUSH2 0x450 JUMPI PUSH2 0x100 DUP1 DUP4 SLOAD DIV MUL DUP4 MSTORE SWAP2 PUSH1 0x20 ADD SWAP2 PUSH2 0x47B JUMP JUMPDEST DUP3 ADD SWAP2 SWAP1 PUSH1 0x0 MSTORE PUSH1 0x20 PUSH1 0x0 KECCAK256 SWAP1 JUMPDEST DUP2 SLOAD DUP2 MSTORE SWAP1 PUSH1 0x1 ADD SWAP1 PUSH1 0x20 ADD DUP1 DUP4 GT PUSH2 0x45E JUMPI DUP3 SWAP1 SUB PUSH1 0x1F AND DUP3 ADD SWAP2 JUMPDEST POP POP POP POP POP SWAP1 POP DUP3 JUMP JUMPDEST POP JUMP JUMPDEST DUP3 DUP1 SLOAD PUSH2 0x494 SWAP1 PUSH2 0x826 JUMP JUMPDEST SWAP1 PUSH1 0x0 MSTORE PUSH1 0x20 PUSH1 0x0 KECCAK256 SWAP1 PUSH1 0x1F ADD PUSH1 0x20 SWAP1 DIV DUP2 ADD SWAP3 DUP3 PUSH2 0x4B6 JUMPI PUSH1 0x0 DUP6 SSTORE PUSH2 0x4FD JUMP JUMPDEST DUP3 PUSH1 0x1F LT PUSH2 0x4CF JUMPI DUP1 MLOAD PUSH1 0xFF NOT AND DUP4 DUP1 ADD OR DUP6 SSTORE PUSH2 0x4FD JUMP JUMPDEST DUP3 DUP1 ADD PUSH1 0x1 ADD DUP6 SSTORE DUP3 ISZERO PUSH2 0x4FD JUMPI SWAP2 DUP3 ADD JUMPDEST DUP3 DUP2 GT ISZERO PUSH2 0x4FC JUMPI DUP3 MLOAD DUP3 SSTORE SWAP2 PUSH1 0x20 ADD SWAP2 SWAP1 PUSH1 0x1 ADD SWAP1 PUSH2 0x4E1 JUMP JUMPDEST JUMPDEST POP SWAP1 POP PUSH2 0x50A SWAP2 SWAP1 PUSH2 0x50E JUMP JUMPDEST POP SWAP1 JUMP JUMPDEST JUMPDEST DUP1 DUP3 GT ISZERO PUSH2 0x527 JUMPI PUSH1 0x0 DUP2 PUSH1 0x0 SWAP1 SSTORE POP PUSH1 0x1 ADD PUSH2 0x50F JUMP JUMPDEST POP SWAP1 JUMP JUMPDEST PUSH1 0x0 PUSH2 0x53E PUSH2 0x539 DUP5 PUSH2 0x782 JUMP JUMPDEST PUSH2 0x75D JUMP JUMPDEST SWAP1 POP DUP3 DUP2 MSTORE PUSH1 0x20 DUP2 ADD DUP5 DUP5 DUP5 ADD GT ISZERO PUSH2 0x55A JUMPI PUSH2 0x559 PUSH2 0x8EC JUMP JUMPDEST JUMPDEST PUSH2 0x565 DUP5 DUP3 DUP6 PUSH2 0x7E4 JUMP JUMPDEST POP SWAP4 SWAP3 POP POP POP JUMP JUMPDEST PUSH1 0x0 DUP3 PUSH1 0x1F DUP4 ADD SLT PUSH2 0x582 JUMPI PUSH2 0x581 PUSH2 0x8E7 JUMP JUMPDEST JUMPDEST DUP2 CALLDATALOAD PUSH2 0x592 DUP5 DUP3 PUSH1 0x20 DUP7 ADD PUSH2 0x52B JUMP JUMPDEST SWAP2 POP POP SWAP3 SWAP2 POP POP JUMP JUMPDEST PUSH1 0x0 DUP2 CALLDATALOAD SWAP1 POP PUSH2 0x5AA DUP2 PUSH2 0x90C JUMP JUMPDEST SWAP3 SWAP2 POP POP JUMP JUMPDEST PUSH1 0x0 PUSH1 0x20 DUP3 DUP5 SUB SLT ISZERO PUSH2 0x5C6 JUMPI PUSH2 0x5C5 PUSH2 0x8F6 JUMP JUMPDEST JUMPDEST PUSH1 0x0 DUP3 ADD CALLDATALOAD PUSH8 0xFFFFFFFFFFFFFFFF DUP2 GT ISZERO PUSH2 0x5E4 JUMPI PUSH2 0x5E3 PUSH2 0x8F1 JUMP JUMPDEST JUMPDEST PUSH2 0x5F0 DUP5 DUP3 DUP6 ADD PUSH2 0x56D JUMP JUMPDEST SWAP2 POP POP SWAP3 SWAP2 POP POP JUMP JUMPDEST PUSH1 0x0 DUP1 PUSH1 0x40 DUP4 DUP6 SUB SLT ISZERO PUSH2 0x610 JUMPI PUSH2 0x60F PUSH2 0x8F6 JUMP JUMPDEST JUMPDEST PUSH1 0x0 DUP4 ADD CALLDATALOAD PUSH8 0xFFFFFFFFFFFFFFFF DUP2 GT ISZERO PUSH2 0x62E JUMPI PUSH2 0x62D PUSH2 0x8F1 JUMP JUMPDEST JUMPDEST PUSH2 0x63A DUP6 DUP3 DUP7 ADD PUSH2 0x56D JUMP JUMPDEST SWAP3 POP POP PUSH1 0x20 PUSH2 0x64B DUP6 DUP3 DUP7 ADD PUSH2 0x59B JUMP JUMPDEST SWAP2 POP POP SWAP3 POP SWAP3 SWAP1 POP JUMP JUMPDEST PUSH1 0x0 PUSH1 0x20 DUP3 DUP5 SUB SLT ISZERO PUSH2 0x66B JUMPI PUSH2 0x66A PUSH2 0x8F6 JUMP JUMPDEST JUMPDEST PUSH1 0x0 PUSH2 0x679 DUP5 DUP3 DUP6 ADD PUSH2 0x59B JUMP JUMPDEST SWAP2 POP POP SWAP3 SWAP2 POP POP JUMP JUMPDEST PUSH1 0x0 PUSH2 0x68D DUP3 PUSH2 0x7B3 JUMP JUMPDEST PUSH2 0x697 DUP2 DUP6 PUSH2 0x7BE JUMP JUMPDEST SWAP4 POP PUSH2 0x6A7 DUP2 DUP6 PUSH1 0x20 DUP7 ADD PUSH2 0x7F3 JUMP JUMPDEST PUSH2 0x6B0 DUP2 PUSH2 0x8FB JUMP JUMPDEST DUP5 ADD SWAP2 POP POP SWAP3 SWAP2 POP POP JUMP JUMPDEST PUSH1 0x0 PUSH2 0x6C6 DUP3 PUSH2 0x7B3 JUMP JUMPDEST PUSH2 0x6D0 DUP2 DUP6 PUSH2 0x7CF JUMP JUMPDEST SWAP4 POP PUSH2 0x6E0 DUP2 DUP6 PUSH1 0x20 DUP7 ADD PUSH2 0x7F3 JUMP JUMPDEST DUP1 DUP5 ADD SWAP2 POP POP SWAP3 SWAP2 POP POP JUMP JUMPDEST PUSH2 0x6F5 DUP2 PUSH2 0x7DA JUMP JUMPDEST DUP3 MSTORE POP POP JUMP JUMPDEST PUSH1 0x0 PUSH2 0x707 DUP3 DUP5 PUSH2 0x6BB JUMP JUMPDEST SWAP2 POP DUP2 SWAP1 POP SWAP3 SWAP2 POP POP JUMP JUMPDEST PUSH1 0x0 PUSH1 0x20 DUP3 ADD SWAP1 POP PUSH2 0x727 PUSH1 0x0 DUP4 ADD DUP5 PUSH2 0x6EC JUMP JUMPDEST SWAP3 SWAP2 POP POP JUMP JUMPDEST PUSH1 0x0 PUSH1 0x40 DUP3 ADD SWAP1 POP PUSH2 0x742 PUSH1 0x0 DUP4 ADD DUP6 PUSH2 0x6EC JUMP JUMPDEST DUP2 DUP2 SUB PUSH1 0x20 DUP4 ADD MSTORE PUSH2 0x754 DUP2 DUP5 PUSH2 0x682 JUMP JUMPDEST SWAP1 POP SWAP4 SWAP3 POP POP POP JUMP JUMPDEST PUSH1 0x0 PUSH2 0x767 PUSH2 0x778 JUMP JUMPDEST SWAP1 POP PUSH2 0x773 DUP3 DUP3 PUSH2 0x858 JUMP JUMPDEST SWAP2 SWAP1 POP JUMP JUMPDEST PUSH1 0x0 PUSH1 0x40 MLOAD SWAP1 POP SWAP1 JUMP JUMPDEST PUSH1 0x0 PUSH8 0xFFFFFFFFFFFFFFFF DUP3 GT ISZERO PUSH2 0x79D JUMPI PUSH2 0x79C PUSH2 0x8B8 JUMP JUMPDEST JUMPDEST PUSH2 0x7A6 DUP3 PUSH2 0x8FB JUMP JUMPDEST SWAP1 POP PUSH1 0x20 DUP2 ADD SWAP1 POP SWAP2 SWAP1 POP JUMP JUMPDEST PUSH1 0x0 DUP2 MLOAD SWAP1 POP SWAP2 SWAP1 POP JUMP JUMPDEST PUSH1 0x0 DUP3 DUP3 MSTORE PUSH1 0x20 DUP3 ADD SWAP1 POP SWAP3 SWAP2 POP POP JUMP JUMPDEST PUSH1 0x0 DUP2 SWAP1 POP SWAP3 SWAP2 POP POP JUMP JUMPDEST PUSH1 0x0 DUP2 SWAP1 POP SWAP2 SWAP1 POP JUMP JUMPDEST DUP3 DUP2 DUP4 CALLDATACOPY PUSH1 0x0 DUP4 DUP4 ADD MSTORE POP POP POP JUMP JUMPDEST PUSH1 0x0 JUMPDEST DUP4 DUP2 LT ISZERO PUSH2 0x811 JUMPI DUP1 DUP3 ADD MLOAD DUP2 DUP5 ADD MSTORE PUSH1 0x20 DUP2 ADD SWAP1 POP PUSH2 0x7F6 JUMP JUMPDEST DUP4 DUP2 GT ISZERO PUSH2 0x820 JUMPI PUSH1 0x0 DUP5 DUP5 ADD MSTORE JUMPDEST POP POP POP POP JUMP JUMPDEST PUSH1 0x0 PUSH1 0x2 DUP3 DIV SWAP1 POP PUSH1 0x1 DUP3 AND DUP1 PUSH2 0x83E JUMPI PUSH1 0x7F DUP3 AND SWAP2 POP JUMPDEST PUSH1 0x20 DUP3 LT DUP2 EQ ISZERO PUSH2 0x852 JUMPI PUSH2 0x851 PUSH2 0x889 JUMP JUMPDEST JUMPDEST POP SWAP2 SWAP1 POP JUMP JUMPDEST PUSH2 0x861 DUP3 PUSH2 0x8FB JUMP JUMPDEST DUP2 ADD DUP2 DUP2 LT PUSH8 0xFFFFFFFFFFFFFFFF DUP3 GT OR ISZERO PUSH2 0x880 JUMPI PUSH2 0x87F PUSH2 0x8B8 JUMP JUMPDEST JUMPDEST DUP1 PUSH1 0x40 MSTORE POP POP POP JUMP JUMPDEST PUSH32 0x4E487B7100000000000000000000000000000000000000000000000000000000 PUSH1 0x0 MSTORE PUSH1 0x22 PUSH1 0x4 MSTORE PUSH1 0x24 PUSH1 0x0 REVERT JUMPDEST PUSH32 0x4E487B7100000000000000000000000000000000000000000000000000000000 PUSH1 0x0 MSTORE PUSH1 0x41 PUSH1 0x4 MSTORE PUSH1 0x24 PUSH1 0x0 REVERT JUMPDEST PUSH1 0x0 DUP1 REVERT JUMPDEST PUSH1 0x0 DUP1 REVERT JUMPDEST PUSH1 0x0 DUP1 REVERT JUMPDEST PUSH1 0x0 DUP1 REVERT JUMPDEST PUSH1 0x0 PUSH1 0x1F NOT PUSH1 0x1F DUP4 ADD AND SWAP1 POP SWAP2 SWAP1 POP JUMP JUMPDEST PUSH2 0x915 DUP2 PUSH2 0x7DA JUMP JUMPDEST DUP2 EQ PUSH2 0x920 JUMPI PUSH1 0x0 DUP1 REVERT JUMPDEST POP JUMP INVALID LOG2 PUSH5 0x6970667358 0x22 SLT KECCAK256 0xE8 0x2D 0xD4 PUSH1 0xF0 0x2A 0xE2 PUSH14 0x712E69655D445270EE4EDF200848 SLT 0x25 0xAC BALANCE 0x1E 0xEA DUP2 0xF7 0xC4 0x2F PUSH5 0x736F6C6343 STOP ADDMOD SMOD STOP CALLER "
        },
        "methodIdentifiers": {
          "addPerson(string,uint256)": "6f760f41",
          "nameToFavoriteNumber(string)": "8bab8dd5",
          "people(uint256)": "9e7a13ad",
          "retrieve()": "2e64cec1",
          "store(uint256)": "6057361d"
        }
      }
    }
  }
}